{
  "transactions": [
    {
      "hash": "0x990d8bd354bbf70e462cc49fac799efcf0a2f20db82e9332d9b5cc8e2b3d65d9",
      "transactionType": "CREATE",
      "contractName": "DevOpsTools",
      "contractAddress": "0x7701f5d93E223019d3ea92c99fDCECf213E7fb8F",
      "function": null,
      "arguments": null,
      "transaction": {
        "type": "0x02",
        "from": "0xf5ac8f6b30e6a012cd6058c6a475825f52ed4754",
        "gas": "0xd48d2",
        "data": "0x6080806040523461001c57610b2690816100228239308160080152f35b600080fdfe604060808152307f000000000000000000000000000000000000000000000000000000000000000014906004918236101561003957600080fd5b600090813560e01c806326dceeb7146101995780632aa1c696146101805780633a76846314610156578063a6066fa514610139578063d76ca83d146100e95763e374cdf11461008757600080fd5b6100e657816003193601126100e65782359067ffffffffffffffff82116100e657506100bb6020936100d59236910161027a565b6100c36102c6565b6100cb610335565b9160243590610663565b90516001600160a01b039091168152f35b80fd5b505060203660031901126100e65782359067ffffffffffffffff82116100e6575061011d610135936101229236910161027a565b6103e5565b9051918291602083526020830190610310565b0390f35b8284816003193601126101525761013590610122610335565b5080fd5b8284816003193601126101525760209051737109709ecfa91a80626ff3989d68f67f5b1dd12d8152f35b82848160031936011261015257610135906101226102c6565b506100e65760803660031901126100e65767ffffffffffffffff928035848111610206576101ca903690830161027a565b93604435818111610202576101e2903690840161027a565b926064359182116100e65750916100cb602095926100d59436910161027a565b8380fd5b8280fd5b6040810190811067ffffffffffffffff82111761022657604052565b634e487b7160e01b600052604160045260246000fd5b90601f8019910116810190811067ffffffffffffffff82111761022657604052565b67ffffffffffffffff811161022657601f01601f191660200190565b81601f820112156102c1578035906102918261025e565b9261029f604051948561023c565b828452602083830101116102c157816000926020809301838601378301015290565b600080fd5b604051906102d38261020a565b600b82526a0b8bd89c9bd85918d85cdd60aa1b6020830152565b60005b8381106103005750506000910152565b81810151838201526020016102f0565b90602091610329815180928185528580860191016102ed565b601f01601f1916010190565b604051906060820182811067ffffffffffffffff8211176102265760405260318252700cadce8bec8cae0d8def2dacadce85ce6d607b1b6040837f2e2f6c69622f666f756e6472792d6465766f70732f7372632f6765745f72656360208201520152565b60001981146103a85760010190565b634e487b7160e01b600052601160045260246000fd5b9081518110156103cf570160200190565b634e487b7160e01b600052603260045260246000fd5b906000908251825b845181101561053a57600160fd1b6001600160f81b031961040e83886103be565b5116036104235761041e90610399565b6103ed565b90919250925b8051805b6104f5575b506001600160f81b031993601760f91b8561044d83856103be565b5116146104d3575b8083039283116103a8576104688361025e565b92610476604051948561023c565b808452610485601f199161025e565b0136602085013760005b83518110156104cb57808201908183116103a857866104b16104c693866103be565b511660001a6104c082876103be565b53610399565b61048f565b509193505050565b600181018091111561045557634e487b7160e01b600052601160045260246000fd5b60001981018181116103a857600160fd1b906001600160f81b03199061051b90856103be565b5116036105325780156103a857600019018061042d565b915038610432565b50909192610429565b8051156103cf5760200190565b8051600110156103cf5760400190565b8051600210156103cf5760600190565b8051600310156103cf5760800190565b8051600410156103cf5760a00190565b9092919261059d8161025e565b916105ab604051938461023c565b8294828452828201116102c15760206105c59301906102ed565b565b6020818303126102c15780519067ffffffffffffffff82116102c157019080601f830112156102c15781516105fe92602001610590565b90565b602080820190808352835180925260408301928160408460051b8301019501936000915b8483106106355750505050505090565b9091929394958480610653600193603f198682030187528a51610310565b9801930193019194939290610625565b9293909161067b6106756000926103e5565b956103e5565b9460409182519461068b8661020a565b60018652815b6020808210156106ac57906060602092828a01015201610691565b5050919396959092958651946106c18661020a565b60038652602095621c1dd960ea1b878201526106dc88610543565b526106e687610543565b50875190638916046760e01b928383528261070560049a8b8301610601565b03948784737109709ecfa91a80626ff3989d68f67f5b1dd12d9781838a5af1938415610ae6578894610aca575b508a519667ffffffffffffffff9160c089018381118a821017610ab7578d52600589528a8a5b60a08110610aa75750508c5161076d8161020a565b8c8152630c4c2e6d60e31b8c8201526107858a610543565b5261078f89610543565b508c516107cb8c82895197828b01986107ab818585018c6102ed565b82016107bf825180938680850191016102ed565b0103808452018261023c565b6107d48a610550565b526107de89610550565b506107e889610560565b526107f288610560565b508b519063348051d760e11b82528b82015288816024818a5afa918215610a9d57918c918b969594938b92610a24575b505093899896949361088c9361085f6021946108b39d9b99976108448c610570565b5261084e8b610570565b5051968794519283918601906102ed565b8201602f60f81b8d82015261087d8d835193849187850191016102ed565b0103600181018452018261023c565b61089584610580565b5261089f83610580565b5083895180978195829483528b8301610601565b03925af1918215610a185781926109f4575b50808086516108d38161020a565b600c81526b2932ba3ab937102230ba309d60a11b8682015287518280826109118a82019563104c13eb60e21b87528b60248401526044830190610310565b0392610925601f199485810183528261023c565b516a636f6e736f6c652e6c6f6794855afa50885161096a888201926305f3bfab60e11b84528960248401528261095e604482018b610310565b0390810183528261023c565b51915afa50508051908201516bffffffffffffffffffffffff19918282169190601481106109df575b505060601c93905083156109a75750505090565b5162461bcd60e51b8152918201526014602482015273139bc818dbdb9d1c9858dd0819195c1b1bde595960621b604482015260649150fd5b8391925060140360031b1b1616803880610993565b610a119192503d8084833e610a09818361023c565b8101906105c7565b90386108c5565b508451903d90823e3d90fd5b92509293949550503d808a843e610a3b818461023c565b8201918a81840312610a99578051918211610a99570181601f82011215610a955788979593946108b39997958b9461085f8f610a8161088c97878a602199519101610590565b94989a9c5094505093819597999b50610822565b8880fd5b8980fd5b8c513d8b823e3d90fd5b606082828d010152018b90610758565b634e487b7160e01b8b5260418d5260248bfd5b610adf9194503d808a833e610a09818361023c565b9238610732565b8b513d8a823e3d90fdfea264697066735822122054c5edfab92c35ea775ef5851d25b12a466ab3ccd38ec0ebda1ed6a65d72c10164736f6c63430008130033",
        "nonce": "0x55",
        "accessList": []
      },
      "additionalContracts": [],
      "isFixedGasLimit": false
    },
    {
      "hash": "0x7c90313409ca900a898a0b93417f5cd70b1c1abe1d942f3583c70a88df6e2035",
      "transactionType": "CREATE",
      "contractName": "Raffle",
      "contractAddress": "0xE4f88311eEbd9CAfFE4980fb155b0d6248eDC34B",
      "function": null,
      "arguments": [
        "917",
        "0x474e34a077df58807dbe9c96d3c009b23b3c6d0cce433e59bbf5b34f823bc56c",
        "30",
        "10000000000000000",
        "500000",
        "0x8103B0A8A00be2DDC778e6e7eaa21791Cd364625"
      ],
      "transaction": {
        "type": "0x02",
        "from": "0xf5ac8f6b30e6a012cd6058c6a475825f52ed4754",
        "gas": "0xcf1d2",
        "value": "0x0",
        "data": "0x6101603461010f576001600160401b03601f610b8438819003918201601f1916840191838311858410176101145780859260c09460405283398101031261010f578151908116810361010f57602082015160408301519160608401519160808501519463ffffffff8616860361010f5760a001516001600160a01b0381169081810361010f5760805260a05260e05261012092835260c05261014090815260ff19600354166003554260005561010092835260405191610a59938461012b853960805184610733015260a051846104bc015260c0518461044e015260e0518461042901525183610481015251828181610143015281816101ef01526103b50152518181816105cb01526109270152f35b600080fd5b634e487b7160e01b600052604160045260246000fdfe608060408181526004918236101561001657600080fd5b600092833560e01c91826309bc33a71461091057508163115cbaf5146108d15781631fe543e3146106b15781632cfcc539146105bc5781634585e33b14610344578163473f1ddc1461031b57816353a2c19a146102ff5781635f1b0fd8146102e35781636e04ff0d1461016657816391ad27b41461012b578163c1c244e81461010e578163e55ae4e8146100d5575063fd6673f5146100b457600080fd5b346100d157816003193601126100d1576020906002549051908152f35b5080fd5b82843461010b57602036600319011261010b57506100f5602092356109d6565b905491519160018060a01b039160031b1c168152f35b80fd5b5050346100d157816003193601126100d157602091549051908152f35b5050346100d157816003193601126100d157602090517f00000000000000000000000000000000000000000000000000000000000000008152f35b82843461010b576020806003193601126100d157833567ffffffffffffffff81116102df57366023820112156102df5780850135906101a4826109ba565b906101b186519283610998565b82825236602484830101116102db579183918160248795018483013701015260ff600354169360028510156102c85782544203904282116102b557507f0000000000000000000000000000000000000000000000000000000000000000109360025415159047151590866102ac575b50856102a4575b508461029c575b5092909180519261023e8461097c565b600384526203078360ec1b85850152815194859315158452828185015284518093850152815b83811061028557505060608094508284010152601f80199101168101030190f35b808601820151878201606001528694508101610264565b93508461022e565b945085610227565b15955086610220565b634e487b7160e01b845260119052602483fd5b634e487b7160e01b835260219052602482fd5b8480fd5b8280fd5b5050346100d157816003193601126100d1576020905160038152f35b5050346100d157816003193601126100d1576020905160018152f35b5050346100d157816003193601126100d15760015490516001600160a01b039091168152602090f35b9050346102df576020806003193601126105b85767ffffffffffffffff82358181116105b457366023820112156105b457808401358281116105b057369101602401116102db578484516103978161094a565b5260035460ff8116600281101561059d578654420342811161058a577f0000000000000000000000000000000000000000000000000000000000000000106002549047151581610581575b81610579575b5080610570575b6203078360ec1b8689516104028161097c565b6003815201521561054d57505060019060ff1916176003558351926305d3b1d360e41b84527f0000000000000000000000000000000000000000000000000000000000000000908401527f00000000000000000000000000000000000000000000000000000000000000001660248301526003604483015263ffffffff7f000000000000000000000000000000000000000000000000000000000000000016606483015260016084830152808260a4818760018060a01b037f0000000000000000000000000000000000000000000000000000000000000000165af192831561054457508392610516575b50507fcd6e45c8998311cab7e9d4385596cac867e20a0587194b954fa3a731c93ce78b8280a280f35b90809250813d831161053d575b61052d8183610998565b810103126100d1575138806104ed565b503d610523565b513d85823e3d90fd5b60649186918847905193632c2193d560e11b855284015260248301526044820152fd5b508015156103ef565b9050386103e8565b831591506103e2565b634e487b7160e01b885260118652602488fd5b634e487b7160e01b875260218552602487fd5b8680fd5b8580fd5b8380fd5b8383816003193601126100d1577f000000000000000000000000000000000000000000000000000000000000000034106106a25760ff60035416600281101561068f5761068057506002546801000000000000000081101561066d5780600161062892016002556109d6565b81546001600160a01b0360039290921b91821b1916339182901b179091557f0805e1d667bddb8a95f0f09880cf94f403fb596ce79928d9f29b74203ba284d48280a280f35b506041602492634e487b7160e01b835252fd5b5163349289c560e21b81529050fd5b634e487b7160e01b835260218452602483fd5b5163181c600560e11b81529050fd5b9050346102df57816003193601126102df5760249167ffffffffffffffff83358181116105b457366023820112156105b457808401359182116108bf578160051b83519160209361070485840185610998565b8352838301878193830101913683116108bb5788869101915b8383106108ab57506001600160a01b03949250507f0000000000000000000000000000000000000000000000000000000000000000841690503381900361088e5750511561087c575160025495861561086b57508561077c91066109d6565b90549060031b1c1693600190856bffffffffffffffffffffffff60a01b8354161782558684516107ab8161094a565b52866002557f405787fa12a823e0f2b7631cc41b3ba8828b3321ca811111fa75cd3aa3bb5ace908101905b818110610861575050506002855260ff19600354166003554285558480808047885af1903d1561085b57853d9161080c836109ba565b9261081986519485610998565b83523d92013e5b1561084e5750507f5b690ec4a06fe979403046eaeea5b3ce38524683c3001f662c8b5a829632f7df8280a280f35b5163a1d04b3960e01b8152fd5b50610820565b87815582016107d6565b634e487b7160e01b88526012865287fd5b634e487b7160e01b8752603285528587fd5b855163073e64fd60e21b8152338189015280890191909152604490fd5b823581529181019186910161071d565b8980fd5b634e487b7160e01b8652604184528486fd5b8383346100d157816003193601126100d15760ff6003541690519160028210156108fd57602083838152f35b634e487b7160e01b815260218452602490fd5b8490346100d157816003193601126100d1576020907f00000000000000000000000000000000000000000000000000000000000000008152f35b6020810190811067ffffffffffffffff82111761096657604052565b634e487b7160e01b600052604160045260246000fd5b6040810190811067ffffffffffffffff82111761096657604052565b90601f8019910116810190811067ffffffffffffffff82111761096657604052565b67ffffffffffffffff811161096657601f01601f191660200190565b600254811015610a0d5760026000527f405787fa12a823e0f2b7631cc41b3ba8828b3321ca811111fa75cd3aa3bb5ace0190600090565b634e487b7160e01b600052603260045260246000fdfea2646970667358221220164c4c4fe3ba593f0901dc181499aabb2e5fa409a8c2be966b33604e5508e69764736f6c634300081300330000000000000000000000000000000000000000000000000000000000000395474e34a077df58807dbe9c96d3c009b23b3c6d0cce433e59bbf5b34f823bc56c000000000000000000000000000000000000000000000000000000000000001e000000000000000000000000000000000000000000000000002386f26fc10000000000000000000000000000000000000000000000000000000000000007a1200000000000000000000000008103b0a8a00be2ddc778e6e7eaa21791cd364625",
        "nonce": "0x56",
        "accessList": []
      },
      "additionalContracts": [],
      "isFixedGasLimit": false
    },
    {
      "hash": "0xa2bc4844fc9ee2cbc6878eb98eedd4e09cd6b4c23d4b917f0badd9fa1f40256e",
      "transactionType": "CALL",
      "contractName": "VRFCoordinatorV2",
      "contractAddress": "0x8103B0A8A00be2DDC778e6e7eaa21791Cd364625",
      "function": "addConsumer(uint64,address)",
      "arguments": [
        "917",
        "0xE4f88311eEbd9CAfFE4980fb155b0d6248eDC34B"
      ],
      "transaction": {
        "type": "0x02",
        "from": "0xf5ac8f6b30e6a012cd6058c6a475825f52ed4754",
        "to": "0x8103b0a8a00be2ddc778e6e7eaa21791cd364625",
        "gas": "0x1a446",
        "value": "0x0",
        "data": "0x7341c10c0000000000000000000000000000000000000000000000000000000000000395000000000000000000000000e4f88311eebd9caffe4980fb155b0d6248edc34b",
        "nonce": "0x57",
        "accessList": []
      },
      "additionalContracts": [],
      "isFixedGasLimit": false
    }
  ],
  "receipts": [
    {
      "transactionHash": "0x990d8bd354bbf70e462cc49fac799efcf0a2f20db82e9332d9b5cc8e2b3d65d9",
      "transactionIndex": "0x2",
      "blockHash": "0xc204509891707544a4562c1e7cf767023f5abae71bcd67c412a7406c88f96636",
      "blockNumber": "0x3a60a0",
      "from": "0xF5aC8f6B30E6a012Cd6058c6a475825F52Ed4754",
      "to": null,
      "cumulativeGasUsed": "0xf962a",
      "gasUsed": "0xa38ba",
      "contractAddress": "0x7701f5d93E223019d3ea92c99fDCECf213E7fb8F",
      "logs": [],
      "status": "0x1",
      "logsBloom": "0x00000000000000000000000000000000000000000000000000000000000000000000000000000000000000000000000000000000000000000000000000000000000000000000000000000000000000000000000000000000000000000000000000000000000000000000000000000000000000000000000000000000000000000000000000000000000000000000000000000000000000000000000000000000000000000000000000000000000000000000000000000000000000000000000000000000000000000000000000000000000000000000000000000000000000000000000000000000000000000000000000000000000000000000000000000000",
      "type": "0x2",
      "effectiveGasPrice": "0xb2d05e14"
    },
    {
      "transactionHash": "0x7c90313409ca900a898a0b93417f5cd70b1c1abe1d942f3583c70a88df6e2035",
      "transactionIndex": "0x3",
      "blockHash": "0xc204509891707544a4562c1e7cf767023f5abae71bcd67c412a7406c88f96636",
      "blockNumber": "0x3a60a0",
      "from": "0xF5aC8f6B30E6a012Cd6058c6a475825F52Ed4754",
      "to": null,
      "cumulativeGasUsed": "0x198c08",
      "gasUsed": "0x9f5de",
      "contractAddress": "0xE4f88311eEbd9CAfFE4980fb155b0d6248eDC34B",
      "logs": [],
      "status": "0x1",
      "logsBloom": "0x00000000000000000000000000000000000000000000000000000000000000000000000000000000000000000000000000000000000000000000000000000000000000000000000000000000000000000000000000000000000000000000000000000000000000000000000000000000000000000000000000000000000000000000000000000000000000000000000000000000000000000000000000000000000000000000000000000000000000000000000000000000000000000000000000000000000000000000000000000000000000000000000000000000000000000000000000000000000000000000000000000000000000000000000000000000",
      "type": "0x2",
      "effectiveGasPrice": "0xb2d05e14"
    },
    {
      "transactionHash": "0xa2bc4844fc9ee2cbc6878eb98eedd4e09cd6b4c23d4b917f0badd9fa1f40256e",
      "transactionIndex": "0x4",
      "blockHash": "0xc204509891707544a4562c1e7cf767023f5abae71bcd67c412a7406c88f96636",
      "blockNumber": "0x3a60a0",
      "from": "0xF5aC8f6B30E6a012Cd6058c6a475825F52Ed4754",
      "to": "0x8103B0A8A00be2DDC778e6e7eaa21791Cd364625",
      "cumulativeGasUsed": "0x1abc4e",
      "gasUsed": "0x13046",
      "contractAddress": null,
      "logs": [
        {
          "address": "0x8103B0A8A00be2DDC778e6e7eaa21791Cd364625",
          "topics": [
            "0x43dc749a04ac8fb825cbd514f7c0e13f13bc6f2ee66043b76629d51776cff8e0",
            "0x0000000000000000000000000000000000000000000000000000000000000395"
          ],
          "data": "0x000000000000000000000000e4f88311eebd9caffe4980fb155b0d6248edc34b",
          "blockHash": "0xc204509891707544a4562c1e7cf767023f5abae71bcd67c412a7406c88f96636",
          "blockNumber": "0x3a60a0",
          "transactionHash": "0xa2bc4844fc9ee2cbc6878eb98eedd4e09cd6b4c23d4b917f0badd9fa1f40256e",
          "transactionIndex": "0x4",
          "logIndex": "0xa",
          "removed": false
        }
      ],
      "status": "0x1",
      "logsBloom": "0x0000000000000000000000000000000000000000020000000000000000000000000000000000000000000000000000000000000000000000000000000000000000000000000000000000000000000000000000000000000000000000000000000000000000008000000000000000000000000000000000000000000000000000000000000c000020000000002000000000000000000000000000000000000000000000000000000000000080000000000000000000000000000000000000000000000000000000000000000000000000000000000000000000020000000000000000000000000000000000001000000000000000000000000000000000000000",
      "type": "0x2",
      "effectiveGasPrice": "0xb2d05e14"
    }
  ],
  "libraries": [
    "lib/foundry-devops/src/DevOpsTools.sol:DevOpsTools:0x7701f5d93e223019d3ea92c99fdcecf213e7fb8f"
  ],
  "pending": [],
  "returns": {
    "1": {
      "internal_type": "contract HelperConfig",
      "value": "0xC7f2Cf4845C6db0e1a1e91ED41Bcd0FcC1b0E141"
    },
    "0": {
      "internal_type": "contract Raffle",
      "value": "0xE4f88311eEbd9CAfFE4980fb155b0d6248eDC34B"
    }
  },
  "timestamp": 1688509374,
  "chain": 11155111,
  "multi": false,
  "commit": "38323c5"
}